:100000000C942A000C9478070C94AB070C94DE0730
:100010000C9447000C9447000C9447000C94470044
:100020000C9447000C9447000C9447000C94470034
:100030000C9447000C9447000C9447000C94470024
:100040000C9447000C9447000C9447000C94470014
:100050000C94470011241FBECFE5D8E0DEBFCDBF12
:1000600012E0A0E6B0E0E8E8F8E302C005900D92E7
:10007000A432B107D9F712E0A4E2B2E001C01D92A8
:10008000AB32B107E1F70E94FA110C94421C0C94B8
:100090000000EF92FF920F931F937B018C0120E0F1
:1000A00030E040E05FE40E94F50388238CF0C80153
:1000B000B70120E030E040E05FE40E94C1010E940F
:1000C000B3049B01AC01205030404040504806C072
:1000D000C801B7010E94B3049B01AC01B901CA0178
:1000E0001F910F91FF90EF900895A0E0B0E0EBE733
:1000F000F0E00C940B1CDC012B01FA019C91923076
:1001000008F439C1EB018881823008F433C194309E
:1001100069F4843009F02FC111969C91119789815F
:10012000981709F428C1A3ECB0E025C1843009F484
:1001300021C18230A9F4923009F01DC19A01AD01AC
:1001400088E0EA010990AE01E90109929E0181501F
:10015000C1F7E201898111969C918923818308C1AD
:10016000923009F407C112962D903C901397EB0141
:100170008A819B811496AD90BD90CD90DC901797AD
:10018000EC80FD800E811F819101281B390BB90184
:1001900037FF04C066277727621B730B6032710537
:1001A0000CF061C0121613066CF537014801062EDB
:1001B00004C096948794779467940A94D2F721E0C8
:1001C00030E040E050E004C0220F331F441F551FB1
:1001D0006A95D2F721503040404050402E213F21B7
:1001E00040235123211531054105510521F021E01E
:1001F00030E040E050E079018A01E628F72808293C
:1002000019293CC0232BD1F1260E371E350146019A
:10021000062E04C096948794779467940A94D2F734
:1002200021E030E040E050E004C0220F331F441FC3
:10023000551F6A95D2F721503040404050402A2146
:100240003B214C215D21211531054105510521F04E
:1002500021E030E040E050E059016A01A628B728CB
:10026000C828D9280BC0821593052CF01C01AA249C
:10027000BB24650103C0EE24FF24870111969C91E5
:10028000D20111968C91981709F445C0992339F041
:10029000A80197012A193B094C095D0906C0A6016E
:1002A00095012E193F09400B510B57FD08C01182D3
:1002B0003382228224833583468357831DC081E0A5
:1002C00081833382228288279927DC01821B930B4A
:1002D000A40BB50B84839583A683B7830DC0220F2F
:1002E000331F441F551F24833583468357838281E0
:1002F000938101979383828324813581468157813D
:10030000DA01C9010197A109B1098F5F9F4FAF4F72
:10031000BF4328F30BC0918333822282EA0CFB1C7B
:100320000C1D1D1DE482F5820683178383E0808304
:10033000248135814681578157FF1AC0C901AA27F8
:1003400097FDA095BA2F81709070A070B0705695EF
:10035000479537952795822B932BA42BB52B848318
:100360009583A683B7838281938101969383828349
:10037000DF0101C0D201CD01CDB7DEB7E2E10C94BF
:10038000271CA0E2B0E0E7ECF1E00C94171C6983B5
:100390007A838B839C832D833E834F835887E9E048
:1003A000EE2EF12CEC0EFD1ECE010196B7010E943F
:1003B0002B068E010F5E1F4FCE010596B8010E94DD
:1003C0002B068A8991E089278A8BC701B801AE0183
:1003D000475E5F4F0E9475000E945605A096E6E0BA
:1003E0000C94331CA0E2B0E0E8EFF1E00C94171C91
:1003F00069837A838B839C832D833E834F835887C5
:10040000F9E0EF2EF12CEC0EFD1ECE010196B701A6
:100410000E942B068E010F5E1F4FCE010596B8017C
:100420000E942B06C701B801AE01475E5F4F0E94D4
:1004300075000E945605A096E6E00C94331CA0E2DD
:10044000B0E0E5E2F2E00C940B1C69837A838B83C5
:100450009C832D833E834F835887CE010196BE0136
:10046000675F7F4F0E942B06CE010596BE016F5E2F
:100470007F4F0E942B069985923088F089898230BF
:10048000C8F0943019F4823051F404C0843029F457
:10049000923081F483EC90E0C6C0923049F420E0C1
:1004A0009A858A89981321E02A87CE010996BBC0D4
:1004B000823049F420E09A858A89981321E02A8BBA
:1004C000CE014196B0C02D843E844F8458886D88FB
:1004D0007E888F88988CEE24FF248701AA24BB2471
:1004E000650140E050E060E070E0E0E0F0E0C10174
:1004F00081709070892BE9F0E60CF71C081D191D1E
:100500009A01AB012A0D3B1D4C1D5D1D80E090E062
:10051000A0E0B0E0E614F7040805190520F481E036
:1005200090E0A0E0B0E0BA01A901480F591F6A1F8E
:100530007B1FAA0CBB1CCC1CDD1C97FE08C081E0F5
:1005400090E0A0E0B0E0A82AB92ACA2ADB2A3196B6
:10055000E032F10549F0660C771C881C991C569412
:10056000479437942794C3CFFA85EA892B893C892D
:100570008B859C85280F391F2E5F3F4F17C0CA01FE
:1005800081709070892B61F016950795F794E79428
:1005900080E090E0A0E0B0E8E82AF92A0A2B1B2BC3
:1005A00076956795579547952F5F3F4F77FDE7CF36
:1005B0000CC0440F551F661F771F17FD4160EE0CDE
:1005C000FF1C001F111F21503040403090E05907A0
:1005D00090E0690790E4790760F32B8F3C8FDB0193
:1005E000CA018F779070A070B07080349105A1051A
:1005F000B10561F447FD0AC0E114F10401051105DC
:1006000029F0405C5F4F6F4F7F4F40781A8EFE1786
:1006100011F081E08A8F4D8F5E8F6F8F78A383E01A
:10062000898FCE0149960E945605A096E2E10C946E
:10063000271CA8E1B0E0EFE1F3E00C94131C698300
:100640007A838B839C832D833E834F835887B9E0C5
:10065000EB2EF12CEC0EFD1ECE010196B7010E948F
:100660002B068E010F5E1F4FCE010596B8010E942A
:100670002B062985223008F47EC03989323010F4E7
:10068000B8017CC08A859A8989278A87243011F02D
:10069000223031F4231709F06EC063EC70E06EC0B5
:1006A000343039F41D861E861F86188A1C861B86E8
:1006B00004C0323021F484E08987B7015FC02B8504
:1006C0003C858B899C89281B390B3C872B87ED84C3
:1006D000FE840F851889AD88BE88CF88D88CEA142F
:1006E000FB040C051D0540F4EE0CFF1C001F111F40
:1006F000215030403C872B8720E030E040E050E044
:1007000080E090E0A0E0B0E460E070E0EA14FB0478
:100710000C051D0540F0282B392B4A2B5B2BEA18C2
:10072000FB080C091D09B695A79597958795EE0CC2
:10073000FF1C001F111F6F5F7F4F6F31710531F775
:10074000DA01C9018F779070A070B0708034910584
:10075000A105B10561F427FD0AC0E114F10401050A
:10076000110529F0205C3F4F4F4F5F4F20782D87B8
:100770003E874F87588BBE01675F7F4FCB010E943A
:1007800056056896EAE00C942F1CA8E1B0E0EBEC6B
:10079000F3E00C94171C69837A838B839C832D83ED
:1007A0003E834F83588789E0E82EF12CEC0EFD1E26
:1007B000CE010196B7010E942B068E010F5E1F4FDE
:1007C000CE010596B8010E942B068985823040F043
:1007D0008989823028F0C701B8010E94A30601C0B0
:1007E0008FEF6896E6E00C94331CA8E1B0E0EBEFE5
:1007F000F3E00C94171C69837A838B839C832D838D
:100800003E834F83588789E0E82EF12CEC0EFD1EC5
:10081000CE010196B7010E942B068E010F5E1F4F7D
:10082000CE010596B8010E942B068985823040F0E2
:100830008989823028F0C701B8010E94A30601C04F
:100840008FEF6896E6E00C94331CA8E1B0E0EBE291
:10085000F4E00C94171C69837A838B839C832D832B
:100860003E834F83588789E0E82EF12CEC0EFD1E65
:10087000CE010196B7010E942B068E010F5E1F4F1D
:10088000CE010596B8010E942B068985823040F082
:100890008989823028F0C701B8010E94A30601C0EF
:1008A00081E06896E6E00C94331CA8E0B0E0EBE54C
:1008B000F4E00C94141C9B01AC0183E08983DA0101
:1008C000C9018827B7FD83959927AA27BB27B82E8A
:1008D000211531054105510519F482E089833AC09B
:1008E0008823A9F0203080E0380780E0480780E8BE
:1008F000580729F460E070E080E09FEC30C0EE24FF
:10090000FF248701E21AF30A040B150B02C07901D8
:100910008A018EE1C82ED12CDC82CB82ED82FE8250
:100920000F831887C801B7010E94070501971816A1
:10093000190684F4082E04C0EE0CFF1C001F111FC2
:100940000A94D2F7ED82FE820F831887C81AD90A5B
:10095000DC82CB82BA82CE0101960E94560528968F
:10096000E9E00C94301CACE0B0E0E9EBF4E00C946E
:100970001B1C69837A838B839C83CE010196BE0105
:100980006B5F7F4F0E942B068D81823061F1823038
:1009900050F1843021F48E81882351F12EC02F81B3
:1009A000388537FD20C06E812F3131051CF066235C
:1009B000F9F023C08EE190E0821B930B29853A85E4
:1009C0004B855C8504C056954795379527958A9544
:1009D000D2F76623B1F050954095309521953F4F61
:1009E0004F4F5F4F0EC020E030E040E050E009C0C4
:1009F0002FEF3FEF4FEF5FE704C020E030E040E033
:100A000050E8B901CA012C96E2E00C94371CEF9231
:100A1000FF920F931F937B018C0180E0E81680E02A
:100A2000F80681E0080780E0180788F48FEFE816E1
:100A3000F1040105110531F028F088E090E0A0E014
:100A4000B0E017C080E090E0A0E0B0E012C080E02D
:100A5000E81680E0F80680E0080781E0180728F033
:100A600088E190E0A0E0B0E004C080E190E0A0E088
:100A7000B0E020E230E040E050E0281B390B4A0BA8
:100A80005B0B04C016950795F794E7948A95D2F707
:100A9000F701E553FF4F8081281B310941095109B6
:100AA000C9011F910F91FF90EF900895DF92EF928F
:100AB000FF920F931F93FC01E480F580068117815C
:100AC000D1808081823048F480E090E0A0E1B0E005
:100AD000E82AF92A0A2B1B2BA5C0843009F49FC0F1
:100AE000823021F4EE24FF24870105C0E114F104D3
:100AF0000105110519F4E0E0F0E096C06281738110
:100B00009FEF623879070CF05BC022E83FEF261BAD
:100B1000370B2A3131052CF020E030E040E050E086
:100B20002AC0B801A701022E04C076956795579593
:100B300047950A94D2F781E090E0A0E0B0E004C0CD
:100B4000880F991FAA1FBB1F2A95D2F70197A109E9
:100B5000B1098E219F21A023B1230097A105B105E2
:100B600021F081E090E0A0E0B0E09A01AB01282BF9
:100B7000392B4A2B5B2BDA01C9018F779070A0705B
:100B8000B07080349105A105B10539F427FF09C083
:100B9000205C3F4F4F4F5F4F04C0215C3F4F4F4F92
:100BA0005F4FE0E0F0E02030A0E03A07A0E04A0725
:100BB000A0E45A0710F0E1E0F0E079018A0127C0D3
:100BC0006038710564F5FB01E158FF4FD801C7019A
:100BD0008F779070A070B07080349105A105B10539
:100BE00039F4E7FE0DC080E490E0A0E0B0E004C07E
:100BF0008FE390E0A0E0B0E0E80EF91E0A1F1B1F93
:100C000017FF05C016950795F794E794319687E08E
:100C100016950795F794E7948A95D1F705C0EE24C9
:100C2000FF248701EFEFF0E06E2F67956627679549
:100C3000902F9F77D794DD24D7948E2F8695492FB8
:100C4000462B582F5D29B701CA011F910F91FF90C4
:100C5000EF90DF900895FC01DB01408151812281FA
:100C6000622F6F7770E0221F2227221F9381892F26
:100C7000880F822B282F30E0991F9927991F1196F2
:100C80009C93119721153105A9F541155105610571
:100C9000710511F482E037C082E89FEF13969C93B0
:100CA0008E9312979A01AB0167E0220F331F441F06
:100CB000551F6A95D1F783E08C930DC0220F331F27
:100CC000441F551F12968D919C911397019713966F
:100CD0009C938E931297203080E0380780E048077D
:100CE00080E4580758F314962D933D934D935C93ED
:100CF000179708952F3F310579F441155105610586
:100D0000710519F484E08C93089564FF03C081E0B9
:100D10008C9312C01C9210C02F57304013963C93F6
:100D20002E93129783E08C9387E0440F551F661F24
:100D3000771F8A95D1F7706414964D935D936D93E8
:100D40007C93179708951F93DC01FB019C919230CF
:100D500008F447C08081823008F443C0943051F4D5
:100D600011961C91843099F58181682F70E0611B88
:100D700071093FC0843021F0923031F48230B9F1F2
:100D80008181882389F12DC011961C9111978230A1
:100D9000F1F081811817D9F412962D913C91139797
:100DA000828193818217930794F028173907BCF04A
:100DB00014968D919D910D90BC91A02D248135812B
:100DC00046815781281739074A075B0718F4112312
:100DD00041F00AC082179307A407B50740F4112316
:100DE00019F061E070E005C06FEF7FEF02C060E0D6
:100DF00070E0CB011F910895DF93CF93CDB7DEB79D
:100E0000AFE5B0E0EFE5F0E0808180688C93ABE582
:100E1000B0E0EBE5F0E0808180648C93A5E5B0E084
:100E2000E5E5F0E0808181608C93A5E5B0E0E5E543
:100E3000F0E080818D7F8C93ABE5B0E0EBE5F0E0F6
:100E4000808180688C93A5E5B0E0E5E5F0E08081E5
:100E500084608C93A5E5B0E0E5E5F0E080818860F2
:100E60008C93ABE5B0E0EBE5F0E0808180628C93A1
:100E7000A4E5B0E0E4E5F0E0808180648C93CF915C
:100E8000DF910895DF93CF9300D0CDB7DEB79A837B
:100E9000898389819A8190932502809324020F90FF
:100EA0000F90CF91DF910895DF93CF9300D0CDB70E
:100EB000DEB79A83898389819A81909327028093F0
:100EC00026020F900F90CF91DF910895DF93CF937B
:100ED00000D0CDB7DEB79A83898389819A819093B8
:100EE0002902809328020F900F90CF91DF910895EF
:100EF0001F920F920FB60F9211242F933F934F938F
:100F00005F936F937F938F939F93AF93BF93EF9371
:100F1000FF93DF93CF93CDB7DEB7809124029091FA
:100F20002502009729F0E0912402F091250209950D
:100F3000CF91DF91FF91EF91BF91AF919F918F91F1
:100F40007F916F915F914F913F912F910F900FBEC5
:100F50000F901F9018951F920F920FB60F921124A9
:100F60002F933F934F935F936F937F938F939F93B1
:100F7000AF93BF93EF93FF93DF93CF93CDB7DEB7DC
:100F80008091260290912702009729F0E091260295
:100F9000F09127020995CF91DF91FF91EF91BF91D9
:100FA000AF919F918F917F916F915F914F913F9101
:100FB0002F910F900FBE0F901F9018951F920F92B8
:100FC0000FB60F9211242F933F934F935F936F931C
:100FD0007F938F939F93AF93BF93EF93FF93DF9391
:100FE000CF93CDB7DEB78091280290912902009768
:100FF00029F0E0912802F09129020995CF91DF9123
:10100000FF91EF91BF91AF919F918F917F916F91E0
:101010005F914F913F912F910F900FBE0F901F90B6
:101020001895DF93CF9300D0CDB7DEB71A8219821F
:101030001A82198270C289819A81880F991F880F3C
:10104000991FFC01E553FE4F8081882309F08EC073
:1010500089819A81880F991F0196880F991FFC0139
:10106000E553FE4F80818130E9F4AAE3B0E0EAE382
:10107000F0E08081482F89819A81880F991F880F1D
:10108000991FFC01E453FE4F8081282F30E081E05E
:1010900090E0022E02C0880F991F0A94E2F7842B79
:1010A0008C9334C2AAE3B0E0EAE3F0E08081482FF9
:1010B00089819A81880F991F880F991FFC01E45339
:1010C000FE4F8081282F30E081E090E0022E02C0A8
:1010D000880F991F0A94E2F7809584238C93898165
:1010E0009A81880F991F880F991FFC01E253FE4FC8
:1010F00080818130E9F4ABE3B0E0EBE3F0E08081A4
:10110000482F89819A81880F991F880F991FFC01A8
:10111000E453FE4F8081282F30E081E090E0022EE2
:1011200002C0880F991F0A94E2F7842B8C93EEC1BA
:10113000ABE3B0E0EBE3F0E08081482F89819A8156
:10114000880F991F880F991FFC01E453FE4F80817F
:10115000282F30E081E090E0022E02C0880F991F16
:101160000A94E2F7809584238C93D0C189819A8177
:10117000880F991F880F991FFC01E553FE4F80814E
:10118000813009F08EC089819A81880F991F01965C
:10119000880F991FFC01E553FE4F80818130E9F4EF
:1011A000A7E3B0E0E7E3F0E08081482F89819A81EE
:1011B000880F991F880F991FFC01E453FE4F80810F
:1011C000282F30E081E090E0022E02C0880F991FA6
:1011D0000A94E2F7842B8C9399C1A7E3B0E0E7E38C
:1011E000F0E08081482F89819A81880F991F880FAC
:1011F000991FFC01E453FE4F8081282F30E081E0ED
:1012000090E0022E02C0880F991F0A94E2F78095A1
:1012100084238C9389819A81880F991F880F991F45
:10122000FC01E253FE4F80818130E9F4A8E3B0E095
:10123000E8E3F0E08081482F89819A81880F991F27
:10124000880F991FFC01E453FE4F8081282F30E066
:1012500081E090E0022E02C0880F991F0A94E2F705
:10126000842B8C9353C1A8E3B0E0E8E3F0E08081E5
:10127000482F89819A81880F991F880F991FFC0137
:10128000E453FE4F8081282F30E081E090E0022E71
:1012900002C0880F991F0A94E2F7809584238C93EB
:1012A00035C189819A81880F991F880F991FFC0188
:1012B000E553FE4F8081823009F08EC089819A818A
:1012C000880F991F0196880F991FFC01E553FE4F67
:1012D00080818130E9F4A4E3B0E0E4E3F0E08081D0
:1012E000482F89819A81880F991F880F991FFC01C7
:1012F000E453FE4F8081282F30E081E090E0022E01
:1013000002C0880F991F0A94E2F7842B8C93FEC0C9
:10131000A4E3B0E0E4E3F0E08081482F89819A8182
:10132000880F991F880F991FFC01E453FE4F80819D
:10133000282F30E081E090E0022E02C0880F991F34
:101340000A94E2F7809584238C9389819A81880F8F
:10135000991F880F991FFC01E253FE4F8081813055
:10136000E9F4A5E3B0E0E5E3F0E08081482F89816E
:101370009A81880F991F880F991FFC01E453FE4F33
:101380008081282F30E081E090E0022E02C0880F9B
:10139000991F0A94E2F7842B8C93B8C0A5E3B0E0C0
:1013A000E5E3F0E08081482F89819A81880F991FB9
:1013B000880F991FFC01E453FE4F8081282F30E0F5
:1013C00081E090E0022E02C0880F991F0A94E2F794
:1013D000809584238C939AC089819A81880F991F64
:1013E000880F991FFC01E553FE4F8081833009F07F
:1013F0008DC089819A81880F991F0196880F991F46
:10140000FC01E553FE4F80818130E9F4A1E3B0E0B7
:10141000E1E3F0E08081482F89819A81880F991F4C
:10142000880F991FFC01E453FE4F8081282F30E084
:1014300081E090E0022E02C0880F991F0A94E2F723
:10144000842B8C9363C0A1E3B0E0E1E3F0E0808102
:10145000482F89819A81880F991F880F991FFC0155
:10146000E453FE4F8081282F30E081E090E0022E8F
:1014700002C0880F991F0A94E2F7809584238C9309
:1014800089819A81880F991F880F991FFC01E25367
:10149000FE4F80818130E9F4A2E3B0E0E2E3F0E0C6
:1014A0008081482F89819A81880F991F880F991F01
:1014B000FC01E453FE4F8081282F30E081E090E072
:1014C000022E02C0880F991F0A94E2F7842B8C9396
:1014D0001DC0A2E3B0E0E2E3F0E08081482F898103
:1014E0009A81880F991F880F991FFC01E453FE4FC2
:1014F0008081282F30E081E090E0022E02C0880F2A
:10150000991F0A94E2F7809584238C9389819A81AC
:1015100001969A83898389819A81823191050CF49D
:101520008ACD0F900F90CF91DF910895DF93CF93E5
:1015300000D000D0CDB7DEB78B836C838B818695CE
:10154000869586958A838B81877089838A81882393
:1015500059F58C818130A1F4ABE3B0E0EBE3F0E02E
:101560008081482F8981282F30E081E090E0022E91
:1015700002C0880F991F0A94E2F7842B8C9314C041
:10158000ABE3B0E0EBE3F0E08081482F8981282FC6
:1015900030E081E090E0022E02C0880F991F0A948B
:1015A000E2F7809584238C938A81813059F58C8170
:1015B0008130A1F4A8E3B0E0E8E3F0E08081482FB7
:1015C0008981282F30E081E090E0022E02C0880F50
:1015D000991F0A94E2F7842B8C9314C0A8E3B0E01F
:1015E000E8E3F0E08081482F8981282F30E081E016
:1015F00090E0022E02C0880F991F0A94E2F78095AE
:1016000084238C938A81823059F58C818130A1F4B6
:10161000A5E3B0E0E5E3F0E08081482F8981282F41
:1016200030E081E090E0022E02C0880F991F0A94FA
:10163000E2F7842B8C9314C0A5E3B0E0E5E3F0E07F
:101640008081482F8981282F30E081E090E0022EB0
:1016500002C0880F991F0A94E2F7809584238C9327
:101660008A81833059F58C818130A1F4A2E3B0E006
:10167000E2E3F0E08081482F8981282F30E081E08B
:1016800090E0022E02C0880F991F0A94E2F7842B83
:101690008C9314C0A2E3B0E0E2E3F0E08081482F35
:1016A0008981282F30E081E090E0022E02C0880F6F
:1016B000991F0A94E2F7809584238C930F900F90E2
:1016C0000F900F90CF91DF910895DF93CF9300D0CB
:1016D00000D0CDB7DEB78B838B81869586958695B6
:1016E0008A838B81877089838A818823C1F4E9E3A7
:1016F000F0E08081282F30E08981882F90E0A901D7
:1017000002C0559547958A95E2F7CA01817090709D
:10171000009711F41C8250C051E05C834DC08A8157
:101720008130C1F4E6E3F0E08081282F30E0898148
:10173000882F90E0A90102C0559547958A95E2F758
:10174000CA0181709070009711F41C8235C051E07D
:101750005C8332C08A818230C1F4E3E3F0E08081AF
:10176000282F30E08981882F90E0A90102C055958B
:1017700047958A95E2F7CA0181709070009711F43D
:101780001C821AC051E05C8317C0E0E3F0E0808166
:10179000282F30E08981882F90E0A90102C055955B
:1017A00047958A95E2F7CA0181709070009711F40D
:1017B0001C8202C051E05C838C810F900F900F90CF
:1017C0000F90CF91DF910895DF93CF93CDB7DEB720
:1017D00028970FB6F894DEBF0FBECDBF1C821B82C8
:1017E00015C0A4E3B0E0E4E3F0E08081282F81E0BD
:1017F00090E00B8002C0880F991F0A94E2F7822BB9
:101800008C938B819C8101969C838B838B819C81A3
:101810008730910534F328960FB6F894DEBF0FBEDB
:10182000CDBFCF91DF910895DF93CF930F92CDB7C6
:10183000DEB789838981882F90E08170907088233A
:1018400029F080E161E00E94960A04C080E160E036
:101850000E94960A89818695882F90E08170907009
:10186000882329F081E161E00E94960A04C081E1A9
:1018700060E00E94960A898186958695882F90E07F
:1018800081709070882329F082E161E00E94960ABD
:1018900004C082E160E00E94960A8981869586955F
:1018A0008695882F90E081709070882329F083E1DD
:1018B00061E00E94960A04C083E160E00E94960AFB
:1018C000898182958F70882F90E081709070882335
:1018D00029F084E161E00E94960A04C084E160E09E
:1018E0000E94960A8981829586958770882F90E05C
:1018F00081709070882329F085E161E00E94960A4A
:1019000004C085E160E00E94960A898182958695EF
:1019100086958370882F90E081709070882329F0DD
:1019200086E161E00E94960A04C086E160E00E94C0
:10193000960A898188232CF487E161E00E94960A47
:1019400004C087E160E00E94960A0F90CF91DF917A
:101950000895DF93CF93CDB7DEB7A6970FB6F8946F
:10196000DEBF0FBECDBF83E061E00E94960A80E03B
:1019700090E0A0E0B0E48BA39CA3ADA3BEA36BA1B9
:101980007CA18DA19EA120E030E04AEF54E40E94AA
:101990001F02DC01CB018F8F98A3A9A3BAA36F8D7F
:1019A00078A189A19AA120E030E040E85FE30E949D
:1019B000250488232CF481E090E09E8F8D8F3FC01A
:1019C0006F8D78A189A19AA120E03FEF4FE757E4FE
:1019D0000E94C50318164CF56BA17CA18DA19EA198
:1019E00020E030E040E251E40E941F02DC01CB0124
:1019F000BC01CD010E944900DC01CB019E8F8D8F7F
:101A00000FC088EC90E09C8F8B8F8B8D9C8D019705
:101A1000F1F79C8F8B8F8D8D9E8D01979E8F8D8F73
:101A20008D8D9E8D009769F714C06F8D78A189A167
:101A30009AA10E944900DC01CB019E8F8D8F8D8D74
:101A40009E8D9A8F898F898D9A8D0197F1F79A8F44
:101A5000898F83E060E00E94960A80E090E0A0EA2F
:101A6000B1E48D8B9E8BAF8BB88F6D897E898F890A
:101A7000988D2BEA3AEA4AE250E40E941F02DC0108
:101A8000CB01898B9A8BAB8BBC8B69897A898B89CB
:101A90009C8920E030E040E85FE30E942504882331
:101AA0001CF481E0888B91C069897A898B899C8933
:101AB00020E030E04FE753E40E94C50318160CF015
:101AC0007BC06D897E898F89988D20E030E04AE760
:101AD00054E40E941903DC01CB018C879D87AE87FB
:101AE000BF876C857D858E859F8520E030E04AEF3D
:101AF00054E40E941F02DC01CB0188879987AA87E2
:101B0000BB87688579858A859B8520E030E040E841
:101B10005FE30E94250488232CF481E090E09F83FA
:101B20008E833FC0688579858A859B8520E03FEF5D
:101B30004FE757E40E94C50318164CF56C857D8568
:101B40008E859F8520E030E040E251E40E941F0234
:101B5000DC01CB01BC01CD010E944900DC01CB01BD
:101B60009F838E830FC088EC90E09D838C838C8153
:101B70009D810197F1F79D838C838E819F810197D1
:101B80009F838E838E819F81009769F724C068852B
:101B900079858A859B850E944900DC01CB019F8362
:101BA0008E838E819F819B838A838A819B8101970B
:101BB000F1F79B838A830FC069897A898B899C8915
:101BC0000E944900DC01CB01888B88898983898147
:101BD0008A95F1F78983A6960FB6F894DEBF0FBEFB
:101BE000CDBFCF91DF910895DF93CF93CDB7DEB70F
:101BF0000E94110882E30E94090E8FE00E94090EE4
:101C000086E00E94090E81E00E94090ECF91DF91CB
:101C10000895DF93CF93CDB7DEB769970FB6F894E9
:101C2000DEBF0FBECDBF898F81E060E00E94960AC3
:101C300082E060E00E94960A898D88232CF487E078
:101C400061E00E94960A04C087E060E00E94960A64
:101C5000898D8295869586958370882F90E0817016
:101C60009070882329F086E061E00E94960A04C003
:101C700086E060E00E94960A898D8295869587703D
:101C8000882F90E081709070882329F085E061E0D2
:101C90000E94960A04C085E060E00E94960A898D41
:101CA00082958F70882F90E081709070882329F042
:101CB00084E061E00E94960A04C084E060E00E9433
:101CC000960A0E94A90C898D869586958695882FFF
:101CD00090E081709070882329F087E061E00E9495
:101CE000960A04C087E060E00E94960A898D869576
:101CF0008695882F90E081709070882329F086E087
:101D000061E00E94960A04C086E060E00E94960AA4
:101D1000898D8695882F90E081709070882329F0B6
:101D200085E061E00E94960A04C085E060E00E94C0
:101D3000960A898D882F90E081709070882329F011
:101D400084E061E00E94960A04C084E060E00E94A2
:101D5000960A0E94A90C80E090E0A0EAB1E48D8B85
:101D60009E8BAF8BB88F6D897E898F89988D2BEA7A
:101D70003AEA4AE250E40E941F02DC01CB01898B5F
:101D80009A8BAB8BBC8B69897A898B899C8920E083
:101D900030E040E85FE30E94250488231CF481E0E2
:101DA000888B91C069897A898B899C8920E030E091
:101DB0004FE753E40E94C50318160CF07BC06D89F1
:101DC0007E898F89988D20E030E04AE754E40E94B4
:101DD0001903DC01CB018C879D87AE87BF876C859B
:101DE0007D858E859F8520E030E04AEF54E40E9497
:101DF0001F02DC01CB0188879987AA87BB8768858A
:101E000079858A859B8520E030E040E85FE30E9489
:101E1000250488232CF481E090E09F838E833FC0CB
:101E2000688579858A859B8520E03FEF4FE757E4F9
:101E30000E94C50318164CF56C857D858E859F859F
:101E400020E030E040E251E40E941F02DC01CB01BF
:101E5000BC01CD010E944900DC01CB019F838E8330
:101E60000FC088EC90E09D838C838C819D810197CD
:101E7000F1F79D838C838E819F8101979F838E8351
:101E80008E819F81009769F724C0688579858A854E
:101E90009B850E944900DC01CB019F838E838E814C
:101EA0009F819B838A838A819B810197F1F79B8322
:101EB0008A830FC069897A898B899C890E9449002D
:101EC000DC01CB01888B8889898389818A95F1F728
:101ED000898369960FB6F894DEBF0FBECDBFCF9150
:101EE000DF910895DF93CF93CDB7DEB769970FB633
:101EF000F894DEBF0FBECDBF898F81E061E00E9404
:101F0000960A82E060E00E94960A898D88232CF46C
:101F100087E061E00E94960A04C087E060E00E94CA
:101F2000960A898D8295869586958370882F90E094
:101F300081709070882329F086E061E00E94960A03
:101F400004C086E060E00E94960A898D829586959D
:101F50008770882F90E081709070882329F085E049
:101F600061E00E94960A04C085E060E00E94960A43
:101F7000898D82958F70882F90E081709070882372
:101F800029F084E061E00E94960A04C084E060E0E9
:101F90000E94960A0E94A90C898D86958695869541
:101FA000882F90E081709070882329F087E061E0AD
:101FB0000E94960A04C087E060E00E94960A898D1C
:101FC00086958695882F90E081709070882329F0FF
:101FD00086E061E00E94960A04C086E060E00E940C
:101FE000960A898D8695882F90E08170907088235D
:101FF00029F085E061E00E94960A04C085E060E077
:102000000E94960A898D882F90E0817090708823B5
:1020100029F084E061E00E94960A04C084E060E058
:102020000E94960A0E94A90C80E090E0A0EAB1E428
:102030008D8B9E8BAF8BB88F6D897E898F89988DA4
:102040002BEA3AEA4AE250E40E941F02DC01CB018B
:10205000898B9A8BAB8BBC8B69897A898B899C899C
:1020600020E030E040E85FE30E94250488231CF470
:1020700081E0888B91C069897A898B899C8920E06D
:1020800030E04FE753E40E94C50318160CF07BC004
:102090006D897E898F89988D20E030E04AE754E48D
:1020A0000E941903DC01CB018C879D87AE87BF8717
:1020B0006C857D858E859F8520E030E04AEF54E475
:1020C0000E941F02DC01CB0188879987AA87BB8702
:1020D000688579858A859B8520E030E040E85FE36C
:1020E0000E94250488232CF481E090E09F838E8356
:1020F0003FC0688579858A859B8520E03FEF4FE763
:1021000057E40E94C50318164CF56C857D858E85B5
:102110009F8520E030E040E251E40E941F02DC0194
:10212000CB01BC01CD010E944900DC01CB019F83A2
:102130008E830FC088EC90E09D838C838C819D8181
:102140000197F1F79D838C838E819F8101979F83F7
:102150008E838E819F81009769F724C06885798579
:102160008A859B850E944900DC01CB019F838E8379
:102170008E819F819B838A838A819B810197F1F75E
:102180009B838A830FC069897A898B899C890E9485
:102190004900DC01CB01888B8889898389818A95F4
:1021A000F1F7898369960FB6F894DEBF0FBECDBFF5
:1021B000CF91DF910895DF93CF9300D0CDB7DEB7F5
:1021C0009A8389830AC0E981FA8180810E94720F13
:1021D00089819A8101969A838983E981FA81808134
:1021E000882389F70F900F90CF91DF910895DF93A7
:1021F000CF9300D000D000D0CDB7DEB79C838B83C7
:102200006D834E8382E00E94090E8CE20E94090ECB
:102210001A82198208C084E10E94090E89819A817C
:1022200001969A8389838D81282F30E08E81882FB3
:1022300090E0002496958795079496958795079446
:10224000982F802D280F391F89819A818217930733
:1022500014F38B819C810E94DB1026960FB6F894B4
:10226000DEBF0FBECDBFCF91DF910895DF93CF9337
:102270000F92CDB7DEB78FEF898384E10E94650BA3
:10228000882311F4198217C085E10E94650B882309
:1022900019F481E089830FC086E10E94650B8823D1
:1022A00019F482E0898307C087E10E94650B8823C7
:1022B00011F483E0898389810F90CF91DF91089594
:1022C000DF93CF9300D0CDB7DEB78FEF8A838FEF48
:1022D000898380E160E00E94960A81E161E00E94CA
:1022E000960A82E161E00E94960A83E161E00E9421
:1022F000960A0E9436118A838A818F3F41F08A8133
:10230000882F90E0FC01ED5EFD4F8081898380E1A4
:1023100061E00E94960A81E160E00E94960A82E1F3
:1023200061E00E94960A83E161E00E94960A0E94A1
:1023300036118A838A818F3F41F08A81882F90E00D
:10234000FC01E95EFD4F8081898380E161E00E94AC
:10235000960A81E161E00E94960A82E160E00E94B3
:10236000960A83E161E00E94960A0E9436118A83F0
:102370008A818F3F41F08A81882F90E0FC01E55EE1
:10238000FD4F8081898380E161E00E94960A81E1AE
:1023900061E00E94960A82E161E00E94960A83E170
:1023A00060E00E94960A0E9436118A838A818F3FDC
:1023B00041F08A81882F90E0FC01E15EFD4F808131
:1023C000898389810F900F90CF91DF910895DF93DA
:1023D000CF93CDB7DEB790912A0281E08927809311
:1023E0002A0290912A0289E1692F0E94960ACF91D0
:1023F000DF9108950F931F93DF93CF93CDB7DEB78F
:10240000CF58D0400FB6F894DEBF0FBECDBF0E94AC
:10241000FC0687EE91E10E944207CE0181589F4F52
:10242000C557DF4F99838883CB58D0402EEB30E0DF
:10243000C357DF4F39832883CD58D04035E0C1578B
:10244000DF4F3883CF58D040C357DF4FE881F98141
:10245000CD58D0400080C357DF4F28813981CD58F7
:10246000D0402F5F3F4FC357DF4F39832883CD586C
:10247000D040C557DF4FE881F981CB58D04000826A
:10248000C557DF4F28813981CB58D0402F5F3F4F50
:10249000C557DF4F39832883CB58D040C157DF4F12
:1024A0003881CF58D0403150C157DF4F3883CF5893
:1024B000D040C157DF4F8881CF58D040882321F6C4
:1024C000FE01E258FF4F1082FE01E658FF4F80E008
:1024D00090E0A0E0B0E080839183A283B383FE010B
:1024E000EA58FF4F80E090E0A0E0B0E08083918365
:1024F000A283B383FE01EC58FF4F11821082FE01CC
:10250000ED58FF4F10820E94F40D81E00E94090EE9
:1025100080E690E00E94DB10FE01E359FF4F80E06F
:1025200090E0AAE7B4E480839183A283B3838E0111
:1025300007591F4FFE01E359FF4F6081718182816E
:10254000938120E030E04AEF54E40E941F02DC0156
:10255000CB01F80180839183A283B383FE01E75905
:10256000FF4F608171818281938120E030E040E8FB
:102570005FE30E942504882344F4FE01E959FF4FDC
:1025800081E090E09183808364C0FE01E759FF4FB2
:10259000608171818281938120E03FEF4FE757E4B2
:1025A0000E94C50318160CF043C0FE01E359FF4F0B
:1025B000608171818281938120E030E040E251E4CA
:1025C0000E941F02DC01CB018E0109591F4FBC0183
:1025D000CD010E944900DC01CB01F8019183808389
:1025E0001FC0FE01EB59FF4F88EC90E09183808380
:1025F000FE01EB59FF4F808191810197F1F7FE01B8
:10260000EB59FF4F91838083DE01A959BF4FFE0133
:10261000E959FF4F80819181019711969C938E9388
:10262000FE01E959FF4F808191810097D1F633C2B5
:102630008E0109591F4FFE01E759FF4F60817181DB
:10264000828193810E944900DC01CB01F8019183D2
:102650008083DE01AD59BF4FFE01E959FF4F8081F4
:10266000918111969C938E93FE01ED59FF4F8081CD
:1026700091810197F1F7FE01ED59FF4F918380831E
:102680000AC2FE01E15AFF4F80E090E0AAEFB3E4F6
:1026900080839183A283B3838E01055A1F4FFE016D
:1026A000E15AFF4F608171818281938120E030E0A7
:1026B0004AEF54E40E941F02DC01CB01F801808341
:1026C0009183A283B383FE01E55AFF4F608171813C
:1026D0008281938120E030E040E85FE30E9425049E
:1026E000882344F4FE01E75AFF4F81E090E0918394
:1026F000808364C0FE01E55AFF4F60817181828151
:10270000938120E03FEF4FE757E40E94C50318167E
:102710000CF043C0FE01E15AFF4F6081718182815C
:10272000938120E030E040E251E40E941F02DC018E
:10273000CB018E01075A1F4FBC01CD010E944900F9
:10274000DC01CB01F801918380831FC0FE01E95AAF
:10275000FF4F88EC90E091838083FE01E95AFF4FA0
:10276000808191810197F1F7FE01E95AFF4F918332
:102770008083DE01A75ABF4FFE01E75AFF4F8081D9
:102780009181019711969C938E93FE01E75AFF4F1A
:10279000808191810097D1F627C08E01075A1F4F83
:1027A000FE01E55AFF4F60817181828193810E9411
:1027B0004900DC01CB01F80191838083DE01AB5A33
:1027C000BF4FFE01E75AFF4F808191818D939C930B
:1027D000FE01EB5AFF4F808191810197F1F7FE01D5
:1027E000EB5AFF4F9183808381E00E94090EFE0126
:1027F000E258FF4F81E080838FE690E00E94DB107B
:10280000FE01EF58FF4F11821082E8C00E94601154
:1028100080932302809123028F3F99F0FE01EF58AD
:10282000FF4F2081318140912302CE018C579F4F71
:10283000FC01E20FF31F4083809123020E94720F7C
:102840000BC0DE01AF58BF4FFE01EF58FF4F808134
:10285000918101978D939C938FEF80932302FE01CA
:10286000EF5AFF4F80E090E0A8E4B3E480839183C7
:10287000A283B3838E01035B1F4FFE01EF5AFF4F0C
:10288000608171818281938120E030E04AEF54E4DD
:102890000E941F02DC01CB01F80180839183A28397
:1028A000B383FE01E35BFF4F60817181828193817D
:1028B00020E030E040E85FE30E942504882344F4F0
:1028C000FE01E55BFF4F81E090E09183808364C06F
:1028D000FE01E35BFF4F608171818281938120E083
:1028E0003FEF4FE757E40E94C50318160CF043C0B2
:1028F000FE01EF5AFF4F608171818281938120E058
:1029000030E040E251E40E941F02DC01CB018E0165
:10291000055B1F4FBC01CD010E944900DC01CB01CA
:10292000F801918380831FC0FE01E75BFF4F88ECB5
:1029300090E091838083FE01E75BFF4F808191816E
:102940000197F1F7FE01E75BFF4F91838083DE0182
:10295000A55BBF4FFE01E55BFF4F80819181019731
:1029600011969C938E93FE01E55BFF4F80819181D0
:102970000097D1F627C08E01055B1F4FFE01E35B78
:10298000FF4F60817181828193810E944900DC0147
:10299000CB01F80191838083DE01A95BBF4FFE016B
:1029A000E55BFF4F808191818D939C93FE01E95BF4
:1029B000FF4F808191810197F1F7FE01E95BFF4FA5
:1029C00091838083DE01AF58BF4FFE01EF58FF4F68
:1029D00080819181019611969C938E93FE01EF5810
:1029E000FF4F80819181843091050CF40FCF2AC074
:1029F000FE01EC58FF4F20813181CE018C579F4F53
:102A0000FC01E20FF31F4081FE01EC58FF4F2081D3
:102A10003181CE0181589F4FFC01E20FF31F80816D
:102A2000481721F0FE01E258FF4F1082DE01AC583A
:102A3000BF4FFE01EC58FF4F8081918101961196A6
:102A40009C938E93FE01E258FF4F8081813041F4C8
:102A5000FE01EC58FF4F808191818430910544F252
:102A6000FE01E258FF4F8081882371F081E00E94CF
:102A7000090E8BE790E00E94DB108AE890E060E0AE
:102A800041E00E94F71007C081E00E94090E8AE928
:102A900090E00E94DB10FE01E258FF4F8081882306
:102AA00009F4EFCD04C00E9460118093230280914D
:102AB00023028334C1F7FE01ED5BFF4F80E090E01D
:102AC000A8E4B3E480839183A283B3838E01015C85
:102AD0001F4FFE01ED5BFF4F608171818281938109
:102AE00020E030E04AEF54E40E941F02DC01CB01F9
:102AF000F80180839183A283B383FE01FF966081F6
:102B000071818281938120E030E040E85FE30E94A0
:102B1000250488232CF481E090E09EAF8DAF46C061
:102B2000FE01FF96608171818281938120E03FEFF9
:102B30004FE757E40E94C503181664F5FE01ED5BEC
:102B4000FF4F608171818281938120E030E040E21B
:102B500051E40E941F02DC01CB01BC01CD010E94A7
:102B60004900DC01CB019EAF8DAF0FC088EC90E037
:102B70009CAF8BAF8BAD9CAD0197F1F79CAF8BAF4A
:102B80008DAD9EAD01979EAF8DAF8DAD9EAD009783
:102B900069F78DC2FE01FF96608171818281938108
:102BA0000E944900DC01CB019EAF8DAF8DAD9EAD83
:102BB0009AAF89AF89AD9AAD0197F1F79AAF89AF16
:102BC00076C20E9460118093230280912302833495
:102BD000C1F763C28FEF8093230281E00E94090E48
:102BE0000AC18E0106581F4FFE01E658FF4F608153
:102BF00071818281938120E030E040E251E40E94C3
:102C00001F02DC01CB01F80180839183A283B3838F
:102C100004C00E94601180932302809123028F3FA1
:102C2000C1F380E090E0A8E4B3E48DAB9EABAFAB22
:102C3000B8AF6DA97EA98FA998AD20E030E04AEF2A
:102C400054E40E941F02DC01CB0189AB9AABABAB11
:102C5000BCAB69A97AA98BA99CA920E030E040E827
:102C60005FE30E94250488232CF481E090E098AB78
:102C70008FA73FC069A97AA98BA99CA920E03FEF43
:102C80004FE757E40E94C50318164CF56DA97EA9BD
:102C90008FA998AD20E030E040E251E40E941F028D
:102CA000DC01CB01BC01CD010E944900DC01CB015C
:102CB00098AB8FA70FC088EC90E09EA78DA78DA53D
:102CC0009EA50197F1F79EA78DA78FA598A90197BB
:102CD00098AB8FA78FA598A9009769F714C069A929
:102CE0007AA98BA99CA90E944900DC01CB0198AB71
:102CF0008FA78FA598A99CA78BA78BA59CA50197AB
:102D0000F1F79CA78BA780912302282F30E0C757AB
:102D1000DF4F39832883C958D040C757DF4F888198
:102D20009981C958D0408F32910509F457C0C757CF
:102D3000DF4FE881F981C958D040E033F105ECF468
:102D4000C757DF4F28813981C958D0402A32310511
:102D50000CF44EC0C757DF4F88819981C958D040C5
:102D60008C329105DCF1C757DF4FE881F981C958F2
:102D7000D040ED32F10591F13BC0C757DF4F2881BC
:102D80003981C958D0402A33310594F58091230206
:102D90000E947519AA2797FDA095BA2FBC01CD01F5
:102DA0000E945504DC01CB018E0106581F4FFE0125
:102DB000E658FF4FBC01CD01208131814281538112
:102DC0000E94F201DC01CB01F80180839183A28390
:102DD000B383809123020E94720F0AC0FE01ED5856
:102DE000FF4F809123028083809123020E94720F03
:102DF0008FEF80932302FE01ED58FF4F80818823DF
:102E000009F4EFCEC4C08E010A581F4FFE01EA58E4
:102E1000FF4F608171818281938120E030E040E248
:102E200051E40E941F02DC01CB01F80180839183F1
:102E3000A283B3838FEF8093230204C00E946011AA
:102E400080932302809123028F3FC1F380E090E0C2
:102E5000A8E4B3E48FA398A7A9A7BAA76FA178A500
:102E600089A59AA520E030E04AEF54E40E941F02B1
:102E7000DC01CB018BA39CA3ADA3BEA36BA17CA162
:102E80008DA19EA120E030E040E85FE30E94250490
:102E900088232CF481E090E09AA389A33FC06BA122
:102EA0007CA18DA19EA120E03FEF4FE757E40E9457
:102EB000C50318164CF56FA178A589A59AA520E041
:102EC00030E040E251E40E941F02DC01CB01BC0172
:102ED000CD010E944900DC01CB019AA389A30FC058
:102EE00088EC90E098A38F8F8F8D98A10197F1F7D0
:102EF00098A38F8F89A19AA101979AA389A389A1E9
:102F00009AA1009769F714C06BA17CA18DA19EA125
:102F10000E944900DC01CB019AA389A389A19AA14F
:102F20009E8F8D8F8D8D9E8D0197F1F79E8F8D8F4A
:102F300080912302882F90E0C0978A30910538F560
:102F4000809123020E947519AA2797FDA095BA2F98
:102F5000BC01CD010E945504DC01CB018E010A5851
:102F60001F4FFE01EA58FF4FBC01CD012081318186
:102F7000428153810E94F201DC01CB01F801808380
:102F80009183A283B383809123020E94720F809168
:102F900023028D3309F037CF8E0106581F4FFE01F3
:102FA000E658FF4F608171818281938120E030E09B
:102FB00040E251E40E941903DC01CB01F801808357
:102FC0009183A283B3838E010A581F4FFE01EA58F2
:102FD000FF4F608171818281938120E030E040E287
:102FE00051E40E941903DC01CB01F8018083918335
:102FF000A283B3838BEA90E00E94DB1081E00E9401
:10300000090EFE01E658FF4F80819181A281B381B4
:10301000AE014D585F4FFE01EA58FF4F008111810C
:1030200022813381BC01CD01FA0140810E946B1ADB
:103030008FEA90E060E041E00E94F7108FEF80930C
:103040002302FE01ED58FF4F1082FE01E658FF4FAC
:1030500080E090E0A0E0B0E080839183A283B3831E
:10306000FE01EA58FF4F80E090E0A0E0B0E08083EE
:103070009183A283B383FE01E258FF4F1082FE01C9
:10308000EC58FF4F1182108204C00E94601180939F
:103090002302809123028F3FC1F380912302833466
:1030A00009F498CD809123028D3309F418C18091E1
:1030B0002A02882309F489CD12C188E161E00E94C7
:1030C000960A80E090E0AAE7B4E4898F9A8FAB8FEC
:1030D000BC8F698D7A8D8B8D9C8D20E030E04AEF1E
:1030E00054E40E941F02DC01CB018D8B9E8BAF8BC1
:1030F000B88F6D897E898F89988D20E030E040E817
:103100005FE30E94250488232CF481E090E09C8BEF
:103110008B8B3FC06D897E898F89988D20E03FEF32
:103120004FE757E40E94C50318164CF5698D7A8D58
:103130008B8D9C8D20E030E040E251E40E941F0224
:10314000DC01CB01BC01CD010E944900DC01CB01B7
:103150009C8B8B8B0FC088EC90E09A8B898B898934
:103160009A890197F1F79A8B898B8B899C890197B2
:103170009C8B8B8B8B899C89009769F714C06D8918
:103180007E898F89988D0E944900DC01CB019C8B40
:103190008B8B8B899C89988B8F878F8598890197DA
:1031A000F1F7988B8F8788E160E00E94960A80E0B3
:1031B00090E0AAE7B4E48B879C87AD87BE876B85D8
:1031C0007C858D859E8520E030E04AEF54E40E94A6
:1031D0001F02DC01CB018F839887A987BA876F8193
:1031E000788589859A8520E030E040E85FE30E9499
:1031F000250488232CF481E090E09E838D833FC0DA
:103200006F81788589859A8520E03FEF4FE757E405
:103210000E94C50318164CF56B857C858D859E85AF
:1032200020E030E040E251E40E941F02DC01CB01CB
:10323000BC01CD010E944900DC01CB019E838D833E
:103240000FC088EC90E09C838B838B819C810197DD
:10325000F1F79C838B838D819E8101979E838D8363
:103260008D819E81009769F714C06F81788589856B
:103270009A850E944900DC01CB019E838D838D815C
:103280009E819A83898389819A810197F1F79A8334
:1032900089838FEF80932302FE01ED58FF4F108248
:1032A000FE01E658FF4F80E090E0A0E0B0E08083B0
:1032B0009183A283B383FE01EA58FF4F80E090E040
:1032C000A0E0B0E080839183A283B383FE01E25843
:1032D000FF4F1082FE01EC58FF4F11821082809147
:1032E0002A02813009F4E9CE10C9DF93CF9300D0D0
:1032F0000F92CDB7DEB789838981282F30E03B83D9
:103300002A838A819B818433910509F44BC02A81E9
:103310003B8125333105DCF48A819B818133910522
:10332000C1F12A813B812233310534F48A819B81AA
:103330008033910561F147C02A813B8122333105F9
:1033400059F18A819B818333910549F13CC02A81DF
:103350003B812733310579F18A819B81883391053F
:103360005CF42A813B8125333105F9F08A819B8108
:1033700086339105E9F027C02A813B812833310546
:10338000E9F08A819B8189339105D9F01CC01982AB
:103390001AC081E0898317C082E0898314C083E06A
:1033A000898311C084E089830EC085E089830BC0C6
:1033B00086E0898308C087E0898305C088E0898327
:1033C00002C089E089838981882F90E00F900F9057
:1033D0000F90CF91DF910895DF93CF9300D000D06D
:1033E000CDB7DEB79A83898389819A819C838B8349
:1033F0008B819C818430910509F44FC08B819C8125
:1034000085309105D4F48B819C8181309105C9F17F
:103410008B819C81823091052CF48B819C8100975B
:1034200061F152C08B819C818230910571F18B8159
:103430009C818330910569F147C08B819C818730E5
:103440009105B9F18B819C81883091055CF48B8169
:103450009C818530910529F18B819C818630910575
:1034600021F132C08B819C818830910531F18B81B3
:103470009C818930910529F127C080E30E94720F59
:1034800023C081E30E94720F1FC082E30E94720F6B
:103490001BC083E30E94720F17C084E30E94720F67
:1034A00013C085E30E94720F0FC086E30E94720F63
:1034B0000BC087E30E94720F07C088E30E94720F5F
:1034C00003C089E30E94720F0F900F900F900F902E
:1034D000CF91DF9108950F931F93DF93CF93CDB7D3
:1034E000DEB767970FB6F894DEBF0FBECDBF6D870E
:1034F0007E878F87988B498B0A8B1B8B2C8B3D8B00
:1035000018861F8281E090E09E838D838989282F11
:1035100030E03F8B2E8B8E899F898B329105C1F0D5
:103520002E893F892C3231053CF48E899F898A325D
:10353000910509F447C067C02E893F892D323105B6
:10354000C1F08E899F898F32910509F44CC05BC010
:103550006D857E858F8598892A893B894C895D890F
:103560000E94F201DC01CB0189879A87AB87BC8777
:103570004AC06D857E858F8598892A893B894C89CB
:103580005D890E94C101DC01CB0189879A87AB87E5
:10359000BC8769857A858B859C8520E030E040E09A
:1035A00050E00E942504882374F58DE20E94720F7A
:1035B00089859A85AB85BC85B05889879A87AB8702
:1035C000BC8721C06D857E858F8598892A893B8936
:1035D0004C895D890E941F02DC01CB0189879A8793
:1035E000AB87BC8710C06D857E858F8598892A89B9
:1035F0003B894C895D890E941903DC01CB018987D5
:103600009A87AB87BC8769857A858B859C8520E006
:1036100030E048EC52E40E941F02DC01CB01BC0107
:10362000CD010E94B304DC01CB0189839A83AB8373
:10363000BC8317C08F819885019698878F83898175
:103640009A81AB81BC812AE030E040E050E0BC01CF
:10365000CD010E94BA1BDA01C90189839A83AB8329
:10366000BC8389819A81AB81BC810097A105B1059A
:1036700009F713C08D819E819C01220F331FC90160
:10368000880F991F880F991F820F931F9E838D8328
:103690008F819885019798878F838F819885813056
:1036A000910541F769857A858B859C8520E030E01E
:1036B00048EC52E40E941F02DC01CB01BC01CD01A9
:1036C0000E94B304DC01CB0189839A83AB83BC8362
:1036D0002FC08D819E818A30910519F48EE20E945F
:1036E000720F8D819E819C01442737FD4095542F98
:1036F00089819A81AB81BC81BC01CD010E94BA1B3A
:10370000DA01C9012AE030E040E050E0BC01CD011F
:103710000E94BA1BDC01CB010E94EC198D819E81B5
:103720002AE030E0B9010E94A71BCB019E838D8364
:103730008D819E81009769F667960FB6F894DEBF7B
:103740000FBECDBFCF91DF911F910F91089597FBD1
:10375000092E07260AD077FD04D027D006D00020F6
:103760001AF4709561957F4F0895F6F790958195BD
:103770009F4F089597FB092E05260ED057FD04D0C4
:1037800028D00AD0001C38F45095409530952195EA
:103790003F4F4F4F5F4F0895F6F790958095709586
:1037A00061957F4F8F4F9F4F0895AA1BBB1B51E11F
:1037B00007C0AA1FBB1FA617B70710F0A61BB70BA1
:1037C000881F991F5A95A9F780959095BC01CD0146
:1037D0000895A1E21A2EAA1BBB1BFD010DC0AA1F52
:1037E000BB1FEE1FFF1FA217B307E407F50720F06A
:1037F000A21BB30BE40BF50B661F771F881F991FE5
:103800001A9469F760957095809590959B01AC012D
:10381000BD01CF0108952F923F924F925F926F9218
:103820007F928F929F92AF92BF92CF92DF92EF9250
:10383000FF920F931F93CF93DF93CDB7DEB7CA1BD1
:10384000DB0B0FB6F894DEBF0FBECDBF09942A88FC
:10385000398848885F846E847D848C849B84AA84A4
:10386000B984C884DF80EE80FD800C811B81AA8131
:10387000B981CE0FD11D0FB6F894DEBF0FBECDBFFC
:08388000ED010895F894FFCF5B
:1038880057656C636F6D6520746F2043414C005021
:10389800617373776F7264203A200056616C6964B3
:1038A8002050617373776F72640050726573732070
:1038B8004320746F20636F6E7400696E76616C6963
:1038C800642050617373776F726400203D20004359
:1038D80020636F6E742C3D207265736574003132FD
:1038E8003334000000000000000000000102020361
:1038F800030303040404040404040405050505057E
:10390800050505050505050505050506060606065A
:10391800060606060606060606060606060606063F
:10392800060606060606060606060607070707072A
:10393800070707070707070707070707070707070F
:1039480007070707070707070707070707070707FF
:1039580007070707070707070707070707070707EF
:1039680007070707070707070707070808080808DA
:1039780008080808080808080808080808080808BF
:1039880008080808080808080808080808080808AF
:10399800080808080808080808080808080808089F
:1039A800080808080808080808080808080808088F
:1039B800080808080808080808080808080808087F
:1039C800080808080808080808080808080808086F
:1039D800080808080808080808080808080808085F
:1039E8000808080808080808080808020001000272
:1039F80001010002020100020301000204000102A9
:103A08000500010206000102070001000001000094
:103A18000101000002010000030100000401000090
:103A28000501000006010000070100030001000372
:103A38000101003738392F3435362A3132332D43D6
:043A4800303D2BFFE3
:00000001FF
